:100000000C9462000C948A000C948A000C948A0070
:100010000C948A000C948A000C948A000C948A0038
:100020000C948A000C948A000C948A000C948A0028
:100030000C948A000C948A000C948A000C948A0018
:100040000C94D0030C948A000C949E030C947803B7
:100050000C948A000C948A000C948A000C948A00F8
:100060000C941A040C948A0000000000240027005D
:100070002A0000000000250028002B0000000000DE
:1000800023002600290004040404040404040202DA
:100090000202020203030303030301020408102007
:1000A0004080010204081020010204081020000012
:1000B0000008000201000003040700000000000027
:1000C0000000480511241FBECFEFD8E0DEBFCDBF32
:1000D00011E0A0E0B1E0ECECF4E102C005900D927B
:1000E000A23FB107D9F725E0A2EFB1E001C01D9210
:1000F000AC3DB207E1F710E0C2E6D0E004C02197C2
:10010000FE010E94590AC136D107C9F70E94B00505
:100110000C94640A0C940000E0916A02F0916B0266
:100120000190F081E02D682F8AE692E00994CF9249
:10013000DF92EF92FF920F931F93CF93DF936C01A7
:100140007A018B01C0E0D0E0CE15DF0589F0D8013F
:100150006D918D01D601ED91FC910190F081E02D22
:10016000C6010995892B11F47E0102C02196ECCFBE
:10017000C701DF91CF911F910F91FF90EF90DF901A
:10018000CF900895FC01918D828D981761F0828D3A
:10019000DF01A80FB11D5D968C91928D9F5F9F73BB
:1001A000928F90E008958FEF9FEF0895FC01918D5D
:1001B000828D981731F0828DE80FF11D858D90E0CA
:1001C00008958FEF9FEF0895FC01918D228D892F67
:1001D00090E0805C9F4F821B91098F73992708954F
:1001E0008AE692E00E94E40021E0892B09F420E0F5
:1001F000822F0895FC01848DDF01A80FB11DA35A41
:10020000BF4F2C91848D90E001968F739927848F36
:10021000A689B7892C93A089B1898C9180648C932D
:10022000938D848D981306C00288F389E02D808118
:100230008F7D80830895EF92FF920F931F93CF934A
:10024000DF93EC0181E0888F9B8D8C8D981305C026
:10025000E889F989808185FD24C0F62E0B8D10E098
:100260000F5F1F4F0F731127E02E8C8DE8120CC00B
:100270000FB607FCFACFE889F989808185FFF5CFB1
:10028000CE010E94FA00F1CF8B8DFE01E80FF11D27
:10029000E35AFF4FF0820B8FEA89FB8980818062ED
:1002A00007C0EE89FF896083E889F98980818064CD
:1002B000808381E090E0DF91CF911F910F91FF90BB
:1002C000EF900895CF93DF93EC01888D8823C9F0D8
:1002D000EA89FB89808185FD05C0A889B9898C914F
:1002E00086FD0FC00FB607FCF5CF808185FFF2CFEA
:1002F000A889B9898C9185FFEDCFCE010E94FA00C3
:10030000E7CFDF91CF91089580E090E0892B29F02D
:100310000E94F00081110C9400000895833081F058
:1003200028F4813099F08230A1F008958730A9F047
:100330008830B9F08430D1F4809180008F7D03C083
:10034000809180008F7780938000089584B58F77A7
:1003500002C084B58F7D84BD08958091B0008F77F1
:1003600003C08091B0008F7D8093B00008951F93EB
:10037000CF93DF93282F30E0F901E255FF4F8491AE
:10038000F901E656FF4FD491F901EA57FF4FC491A6
:10039000CC23C9F0162F81110E948E01EC2FF0E0C2
:1003A000EE0FFF1FEE58FF4FA591B4918FB7F89451
:1003B000111105C09C91ED2FE095E92302C0EC914D
:1003C000ED2BEC938FBFDF91CF911F910895CF93C9
:1003D000DF93682F8BE00E94B701C7E0D0E0CE0129
:1003E0000197F1F761E08DE00E94B701CE0101971E
:1003F000F1F760E08DE00E94B7012197F1F7DF91FE
:10040000CF910895CF93DF9390E0FC01E656FF4F24
:100410002491FC01EA57FF4F8491882361F190E019
:10042000880F991FFC01E859FF4FC591D491FC0139
:10043000EE58FF4FA591B491611109C09FB7F89490
:100440008881209582238883EC912E230BC0623013
:1004500061F49FB7F8943881822F80958323888335
:10046000EC912E2B2C939FBF06C08FB7F894E88198
:100470002E2B28838FBFDF91CF9108953FB7F8943B
:100480008091660290916702A0916802B091690222
:1004900026B5A89B05C02F3F19F00196A11DB11DDF
:1004A0003FBFBA2FA92F982F8827820F911DA11D1A
:1004B000B11DBC01CD0142E0660F771F881F991F57
:1004C0004A95D1F7089585ED8093BC008091BC00DA
:1004D00084FDFCCF10923B02089508958FEF9FEFAB
:1004E00008958FEF9FEF08958091F20190E091952C
:1004F000819591090895CA01413288F420913B0207
:10050000243069F440931502FB0143EF51E0DA0116
:100510002A2F241B281718F421912D93F9CF089521
:1005200080913B02843029F481E08093150260932E
:10053000F30181E090E008958F929F92AF92BF9275
:10054000CF92DF92EF92FF920F931F93CF93DF939F
:10055000EC016701780180ECE0E0F1E0DE015D96FE
:1005600001900D928A95E1F77E8B6D8B5C8F4B8F9E
:10057000FE01E352FF4F20834A01550FAA08BB0832
:100580006230710530F580E098E09A8F898F20E025
:1005900030E0A901C701B6010E94E209181624F053
:1005A000F7FAF094F7F8F094C501B4010E9432090B
:1005B0009B01AC01C701B6010E94E7090E94010935
:1005C0000E9430099B01AC0160E074E284E799E489
:1005D00025C080E090E19A8F898F20E030E0A9016A
:1005E000C701B6010E94E209181624F0F7FAF09448
:1005F000F7F8F094C501B4010E9432099B01AC01E7
:10060000C701B6010E94E7090E9401090E94300952
:100610009B01AC0160E074E284EF98E40E948F08D3
:100620000E940109688379838A839B83DF91CF913C
:100630001F910F91FF90EF90DF90CF90BF90AF9000
:100640009F908F900895009769F0FC010190002021
:10065000E9F73197AF01481B590BBC018AE692E0DC
:100660000C94970080E090E008958F929F92AF9253
:10067000BF920F931F93CF93DF93CDB7DEB7A197B0
:100680000FB6F894DEBF0FBECDBF19A2423008F4FA
:100690004AE08E010F5D1F4F842E912CA12CB12CAE
:1006A000A50194010E94FB07E62FB901CA01015080
:1006B0001109EA3014F4E05D01C0E95CD801EC9363
:1006C000232B242B252B61F7C8010E942303A1961D
:1006D0000FB6F894DEBF0FBECDBFDF91CF911F9153
:1006E0000F91BF90AF909F908F9008950E945F0AE6
:1006F0001F920F920FB60F9211242F933F934F9397
:100700005F936F937F938F939F93AF93BF93EF9379
:10071000FF938AE692E00E94FA00FF91EF91BF9169
:10072000AF919F918F917F916F915F914F913F9189
:100730002F910F900FBE0F901F9018951F920F9240
:100740000FB60F9211242F938F939F93EF93FF93E4
:10075000E0917A02F0917B028081E0918002F09139
:10076000810282FD12C09081809183028F5F8F731E
:1007700020918402821751F0E0918302F0E0E65963
:10078000FD4F958F8093830201C08081FF91EF918F
:100790009F918F912F910F900FBE0F901F901895E2
:1007A0001F920F920FB60F9211242F933F938F93A6
:1007B0009F93AF93BF938091620290916302A09147
:1007C0006402B09165023091610223E0230F2D375E
:1007D00020F40196A11DB11D05C026E8230F029645
:1007E000A11DB11D20936102809362029093630268
:1007F000A0936402B09365028091660290916702B3
:10080000A0916802B09169020196A11DB11D80936B
:10081000660290936702A0936802B0936902BF9149
:10082000AF919F918F913F912F910F900FBE0F909D
:100830001F9018951F920F920FB60F9211242F93AD
:100840003F934F935F936F937F938F939F93AF9358
:10085000BF93EF93FF938091B900887F803609F4AE
:100860009CC068F5883209F45BC090F4803109F4CB
:1008700054C038F4882309F4F6C0883009F44DC018
:10088000F6C0883109F44CC0803209F45DC0EFC075
:10089000803409F468C048F4803309F455C08833C3
:1008A00009F0E5C080933A02D8C0803509F44FC002
:1008B000883509F45DC0883409F0D9C0D6C08839BC
:1008C00009F4C7C0A8F4883709F467C038F488363B
:1008D00009F463C0803709F460C0C9C0883809F4DE
:1008E000B8C0803909F45FC0803809F0C0C05BC06F
:1008F000803B09F486C038F4803A09F466C0883A2F
:1009000009F47FC0B4C0803C09F4A7C0883C09F456
:10091000A4C0883B09F48AC0AAC08091600210C0BC
:1009200090915F0280915E02981770F5E0915F02EE
:1009300081E08E0F80935F02F0E0E25CFD4F8081EA
:100940008093BB0085EC86C080933A028EC0E09114
:100950005F0281E08E0F80935F028091BB00F0E028
:10096000E25CFD4F808390915F0280915E026EC0D9
:10097000E0915F0281E08E0F80935F028091BB0067
:10098000F0E0E25CFD4F808380913D0281116DC0FB
:1009900081E080933C0284EA61C083E080933B0263
:1009A00010923902CFCF80913902803208F051C0C5
:1009B000E091390281E08E0F809339028091BB0073
:1009C000F0E0E75EFD4F8083BDCF85EC8093BC00F7
:1009D00010923B0280913902803230F4E09139026A
:1009E000F0E0E75EFD4F10826091390270E0E09127
:1009F0001702F091180289E192E0099510923902EC
:100A000036C084E080933B021092160210921502C9
:100A1000E0911302F0911402099580911502811161
:100A200005C081E0809315021092F301E091160257
:100A300081E08E0F80931602F0E0ED50FE4F808132
:100A40008093BB009091160280911502981708F4CC
:100A500079CF85E88093BC000AC085EC8093BC0008
:100A600010923B0204C010923A020E946302FF916E
:100A7000EF91BF91AF919F918F917F916F915F9116
:100A80004F913F912F910F900FBE0F901F9018958F
:100A9000EF92FF920F931F93EAE6F2E01382128225
:100AA00088EE93E0A0E0B0E084839583A683B783CB
:100AB00024EC31E03183208325EC30E03587248736
:100AC00024EC30E03787268720EC30E0318B208B18
:100AD00021EC30E0338B228B22EC30E0358B248B01
:100AE00026EC30E0378B268B118E128E138E148EEF
:100AF000E8ECF5E01382128284839583A683B783A2
:100B000084ED91E091838083A4EDB5E01196FC9390
:100B1000EE9388E416968C93E12CF12C00E211E41C
:100B200021E04EE550E062E070E08DED94E00E943F
:100B30009C0220E04EE550E062E070E082EF93E03E
:100B40000E949C0221E040E052E062E070E087E019
:100B500093E00E949C021F910F91FF90EF900895E7
:100B6000CF93DF9300D000D01F92CDB7DEB778943B
:100B700084B5826084BD84B5816084BD85B58260A2
:100B800085BD85B5816085BD80916E008160809353
:100B90006E001092810080918100826080938100BC
:100BA00080918100816080938100809180008160CC
:100BB000809380008091B10084608093B100809127
:100BC000B00081608093B00080917A00846080934F
:100BD0007A0080917A00826080937A0080917A0016
:100BE000816080937A0080917A00806880937A0097
:100BF0001092C10061E084E00E94B70161E084E0EE
:100C00000E94020260E08CE00E94020261E08BE040
:100C10000E94B70161E08BE00E94020261E08DE07A
:100C20000E94B70161E08DE00E9402020E943E0234
:100C30006B017C010E943E02DC01CB018C199D09F5
:100C4000AE09BF09883E9340A105B10598F335E090
:100C5000E32EF12C07E010E04AEBA42E40E0B42E86
:100C600056EA852E50E0952E62E9662E60E0762EDB
:100C700020E5C22ED12C60E08DE00E94B701C801B2
:100C80000197F1F761E08DE00E94B701C80101977B
:100C9000F1F781E0C81AD10871F760E08DE00E9499
:100CA000B70160E084E00E94B70180E00E94E701A4
:100CB00081E00E94E701F6E2CF2ED12C80E00E9475
:100CC000E70191E0C91AD108C9F781E00E94E70164
:100CD00080E00E94E70180E00E94E70181E00E943D
:100CE000E70180E00E94E70181E00E94E70180E0E7
:100CF0000E94E70181E00E94E701E4E6CE2ED12CBC
:100D0000F5018491F4014490F3015490552009F4C5
:100D10006FC181110E948E01E52DF0E0EE0FFF1FE3
:100D2000E458FF4FA591B4918C91482209F460C119
:100D300061E08DE00E94B701C8010197F1F760E022
:100D40008DE00E94B701C8010197F1F7F1E0CF1AD9
:100D5000D108B1F6D12C61E084E00E94B701D11036
:100D600005C0F1E0EF1AF10809F082CF60E084E0FD
:100D70000E94020260E08BE00E94020260E08DE0CF
:100D80000E940202E0917A02F0917B0282E080836D
:100D9000E0917602F09177021082E0917802F09172
:100DA000790280E1808310928202E0917E02F091CC
:100DB0007F0286E08083E0917C02F0917D02808159
:100DC00080618083E0917C02F0917D028081886067
:100DD0008083E0917C02F0917D0280818068808335
:100DE000E0917C02F0917D0280818F7D808395E08F
:100DF000392E8E010F5F1F4FF801232D11922A9576
:100E0000E9F778016701C01AD10A8AE692E00E94E8
:100E1000E400892BD1F38AE692E00E94C2008A3076
:100E200041F095E0C916D10484F7F70181937F0161
:100E3000E9CFCC800C2C000CDD08DC2CCC248D817F
:100E4000082E000C990BC82AD92A0D2C000CEE088C
:100E5000FF08260137016981062E000C770B880BED
:100E6000990B40E10E94350380EE91E00E9423033C
:100E7000F7FE0EC08DE20E948C0088279927DC01C6
:100E80008C199D09AE09BF094AE0BC01CD0103C020
:100E90004AE0C701B6010E94350383EE91E00E944B
:100EA000230380EE91E00E942303A7019601C7016E
:100EB000B6010E94540A882319F086EE91E01AC008
:100EC00046015701E894B7F82FEF3FEF4FE75FE790
:100ED000C501B4010E94540A81110FC02FEF3FEFEA
:100EE0004FE75FE7C501B4010E948A0818162CF489
:100EF0008AEE91E00E94230374C02FEF3FEF4FE78B
:100F00005FE4C701B6010E94E20918161CF48EEED8
:100F100091E0F0CF2FEF3FEF4FE75FECC701B60155
:100F20000E948A0887FDF3CF20E030E0A901C701C5
:100F3000B6010E948A0887FF09C08DE20E948C00DA
:100F40002601370177FA709477F870942AE037ED2C
:100F500043EA5BE3C301B2010E941E082B013C017E
:100F60000E9401096B017C010E9430099B01AC01C8
:100F7000C301B2010E941D082B013C014AE0C701D8
:100F8000B6010E9435038EE20E948C0020E030E022
:100F900040E251E4C301B2010E94E7092B013C0188
:100FA0000E9401096B01E12CF12C4AE0C701B60156
:100FB0000E943503C701B6010E9430099B01AC01B4
:100FC000C301B2010E941D0820E030E040E251E47C
:100FD0000E94E7090E94010980E090E04AE00E9437
:100FE000350383EE91E00E9423030E94840104CF25
:100FF000DD24D394B0CEA1E21A2EAA1BBB1BFD01A7
:101000000DC0AA1FBB1FEE1FFF1FA217B307E407E7
:10101000F50720F0A21BB30BE40BF50B661F771F3F
:10102000881F991F1A9469F760957095809590951F
:101030009B01AC01BD01CF0108955058BB27AA27E1
:101040000E9435080C94A8090E949A0938F00E9461
:10105000A10920F039F49F3F19F426F40C94970964
:101060000EF4E095E7FB0C949109E92F0E94B90971
:1010700058F3BA17620773078407950720F079F4CD
:10108000A6F50C94DB090EF4E0950B2EBA2FA02DDB
:101090000B01B90190010C01CA01A0011124FF2725
:1010A000591B99F0593F50F4503E68F11A16F04020
:1010B000A22F232F342F4427585FF3CF469537951F
:1010C0002795A795F0405395C9F77EF41F16BA0BE4
:1010D000620B730B840BBAF09150A1F0FF0FBB1F92
:1010E000661F771F881FC2F70EC0BA0F621F731FDB
:1010F000841F48F4879577956795B795F7959E3F38
:1011000008F0B0CF9395880F08F09927EE0F9795C8
:10111000879508950E946D0908F481E008950E9462
:10112000A3080C94A8090E94A10958F00E949A09EA
:1011300040F029F45F3F29F00C94910951110C946F
:10114000DC090C9497090E94B90968F39923B1F35B
:10115000552391F3951B550BBB27AA2762177307DD
:10116000840738F09F5F5F4F220F331F441FAA1F71
:10117000A9F335D00E2E3AF0E0E832D0915050402D
:10118000E695001CCAF72BD0FE2F29D0660F771FDB
:10119000881FBB1F261737074807AB07B0E809F0C1
:1011A000BB0B802DBF01FF2793585F4F3AF09E3F46
:1011B000510578F00C9491090C94DC095F3FE4F33D
:1011C000983ED4F3869577956795B795F7959F5F89
:1011D000C9F7880F911D9695879597F90895E1E0D5
:1011E000660F771F881FBB1F621773078407BA0734
:1011F00020F0621B730B840BBA0BEE1F88F7E0958F
:1012000008950E94C10988F09F5798F0B92F992737
:10121000B751B0F0E1F0660F771F881F991F1AF0E1
:10122000BA95C9F714C0B13091F00E94DB09B1E062
:1012300008950C94DB09672F782F8827B85F39F061
:10124000B93FCCF3869577956795B395D9F73EF47A
:1012500090958095709561957F4F8F4F9F4F089522
:10126000E89409C097FB3EF4909580957095619540
:101270007F4F8F4F9F4F9923A9F0F92F96E9BB27F6
:101280009395F695879577956795B795F111F8CF72
:10129000FAF4BB0F11F460FF1BC06F5F7F4F8F4FDD
:1012A0009F4F16C0882311F096E911C0772321F0D3
:1012B0009EE8872F762F05C0662371F096E8862F6B
:1012C00070E060E02AF09A95660F771F881FDAF7C2
:1012D000880F9695879597F90895990F0008550FEF
:1012E000AA0BE0E8FEEF16161706E807F907C0F0AC
:1012F00012161306E407F50798F0621B730B840BB4
:10130000950B39F40A2661F0232B242B252B21F48D
:1013100008950A2609F4A140A6958FEF811D811D2D
:10132000089597F99F6780E870E060E008959FEF67
:1013300080EC089500240A9416161706180609066C
:10134000089500240A94121613061406050608953B
:10135000092E0394000C11F4882352F0BB0F40F4C3
:10136000BF2B11F460FF04C06F5F7F4F8F4F9F4F03
:10137000089557FD9058440F551F59F05F3F71F085
:101380004795880F97FB991F61F09F3F79F08795EC
:101390000895121613061406551FF2CF4695F1DF75
:1013A00008C0161617061806991FF1CF8695710505
:1013B000610508940895E894BB2766277727CB0139
:1013C00097F908950E946D0908F48FEF08950E941F
:1013D000FA090C94A8090E949A0938F00E94A10900
:1013E00020F0952311F00C9491090C949709112485
:1013F0000C94DC090E94B90970F3959FC1F3950F15
:1014000050E0551F629FF001729FBB27F00DB11D88
:10141000639FAA27F00DB11DAA1F649F6627B00D18
:10142000A11D661F829F2227B00DA11D621F739F01
:10143000B00DA11D621F839FA00D611D221F749F0F
:101440003327A00D611D231F849F600D211D822F56
:10145000762F6A2F11249F5750409AF0F1F088237D
:101460004AF0EE0FFF1FBB1F661F771F881F9150AA
:101470005040A9F79E3F510580F00C9491090C94BF
:10148000DC095F3FE4F3983ED4F386957795679542
:10149000B795F795E7959F5FC1F7FE2B880F911DD4
:1014A0009695879597F908950E946D09880B990B79
:1014B0000895EE0FFF1F0590F491E02D099481E04F
:0C14C00090E0F8940C94640AF894FFCFBC
:1014CC00000000000000010000000000010000000E
:1014DC0000000100000000000100000000000000FE
:1014EC0000000000000001000000000001000000EE
:1014FC0000000100000000000100000000000000DE
:10150C0000000000010001000000010001000000CB
:10151C0001000100000000000100000000000100BB
:10152C0000000000010001000000010001000000AB
:10153C00010001000000000001000000000001009B
:10154C00000000000000010000000000010001008C
:10155C00000000000100000000000100010000007C
:10156C00000001000000000001000100000000006C
:10157C00010000000000000001000000000001005C
:10158C00000000001B019700E400C200D6006201BD
:10159C000000000090027B02740271026E026D0268
:1015AC002C20000D0A006E616E00696E66006F766D
:0215BC006600C7
:00000001FF
